:020000040800F2
:1000000000000120815B0008395B00083B5B0008B1
:100010003D5B00083F5B0008415B000800000000FA
:10002000000000000000000000000000B1300008E7
:10003000435B00080000000051310008B5310008A2
:10004000D15B0008D15B0008D15B0008D15B0008E0
:10005000D15B0008D15B0008D15B0008D15B0008D0
:10006000D15B0008D15B0008D15B0008D15B0008C0
:10007000D15B0008D15B0008D15B0008D15B0008B0
:10008000D15B0008D15B0008D15B0008D15B0008A0
:10009000455B0008D15B0008D15B0008D15B00081C
:1000A000D15B0008555B0008D15B0008D15B0008FC
:1000B000D15B0008D15B0008D15B0008D15B000870
:1000C000D15B0008D15B0008D15B0008D15B000860
:1000D000D15B0008D15B0008D15B0008D15B000850
:1000E000D15B0008D15B0008D15B0008D15B000840
:1000F000D15B0008D15B0008D15B0008D15B000830
:10010000D15B00080000000000000000D15B000887
:10011000D15B0008D15B0008D15B0008D15B00080F
:10012000D15B0008D15B0008D15B0008D15B0008FF
:10013000D15B0008D15B0008000000000000000057
:10014000D15B0008D15B0008D15B00080000000013
:10015000000000000000000000000000000000009F
:10016000D15B0008D15B0008D15B0008D15B0008BF
:10017000D15B0008D15B0008D15B0008D15B0008AF
:10018000D15B0008D15B0008000000000000000007
:04019000D15B000837
:1001A00010B5054C237833B9044B13B10448AFF3B1
:1001B00000800123237010BD140000200000000007
:1001C000485C000808B5034B1BB103490348AFF373
:1001D000008008BD0000000018000020485C0008F6
:1001E00070B54FF0FF0C4CF4E06C1CEA11541DBFCD
:1001F0001CEA135594EA0C0F95EA0C0F00F0DEF898
:100200002C4481EA030621EA4C5123EA4C5350EA7C
:10021000013518BF52EA033541F4801143F48013CD
:1002200038D0A0FB02CE4FF00005E1FB02E506F05E
:100230000042E0FB03E54FF00006E1FB03569CF0B3
:10024000000F18BF4EF0010EA4F1FF04B6F5007FB9
:1002500064F5407404D25FEA4E0E6D4146EB06062B
:1002600042EAC62141EA55514FEAC52040EA5E50B4
:100270004FEACE2EB4F1FD0C88BFBCF5E06F1ED85E
:10028000BEF1004F08BF5FEA500E50F1000041EB95
:10029000045170BD06F0004646EA010140EA020042
:1002A00081EA0301B4EB5C04C2BFD4EB0C0541EA64
:1002B000045170BD41F480114FF0000E013C00F379
:1002C000AB8014F1360FDEBF002001F0004170BD9D
:1002D000C4F10004203C35DA0C341BDC04F11404B6
:1002E000C4F1200500FA05F320FA04F001FA05F242
:1002F00040EA020001F0004221F0004110EBD3700F
:1003000021FA04F642EB06015EEA430E08BF20EA3A
:10031000D37070BDC4F10C04C4F1200500FA04F3DD
:1003200020FA05F001FA04F240EA020001F000416F
:1003300010EBD37041F100015EEA430E08BF20EAE2
:10034000D37070BDC4F1200500FA05F24EEA020E2A
:1003500020FA04F301FA05F243EA020321FA04F059
:1003600001F0004121FA04F220EA020000EBD37010
:100370005EEA430E08BF20EAD37070BD94F0000F10
:100380000FD101F00046400041EB010111F4801F44
:1003900008BF013CF7D041EA060195F0000F18BFF5
:1003A000704703F00046520043EB030313F4801F31
:1003B00008BF013DF7D043EA0603704794EA0C0FEB
:1003C0000CEA135518BF95EA0C0F0CD050EA410601
:1003D00018BF52EA4306D1D181EA030101F000417E
:1003E0004FF0000070BD50EA410606BF10461946A6
:1003F00052EA430619D094EA0C0F02D150EA0136B2
:1004000013D195EA0C0F05D152EA03361CBF1046F2
:1004100019460AD181EA030101F0004141F0FE4191
:1004200041F470014FF0000070BD41F0FE4141F415
:10043000780170BD81F0004102E000BF83F000430D
:1004400030B54FEA41044FEA430594EA050F08BF6F
:1004500090EA020F1FBF54EA000C55EA020C7FEA33
:10046000645C7FEA655C00F0E2804FEA5454D4EBB0
:100470005555B8BF6D420CDD2C4480EA020281EA7A
:10048000030382EA000083EA010180EA020281EAB2
:100490000303362D88BF30BD11F0004F4FEA013104
:1004A0004FF4801C4CEA113102D0404261EB410113
:1004B00013F0004F4FEA03334CEA133302D0524299
:1004C00063EB430394EA050F00F0A780A4F1010455
:1004D000D5F1200E0DDB02FA0EFC22FA05F280188F
:1004E00041F1000103FA0EF2801843FA05F3594175
:1004F0000EE0A5F120050EF1200E012A03FA0EFCF4
:1005000028BF4CF0020C43FA05F3C01851EBE3711D
:1005100001F0004507D54FF0000EDCF1000C7EEB3A
:1005200000006EEB0101B1F5801F1BD3B1F5001F78
:100530000CD349085FEA30004FEA3C0C04F1010497
:100540004FEA445212F5800F80F09A80BCF1004FC0
:1005500008BF5FEA500C50F1000041EB045141EA42
:10056000050130BD5FEA4C0C404141EB0101013C0B
:1005700028BFB1F5801FE9D291F0000F04BF0146FA
:100580000020B1FA81F308BF2033A3F10B03B3F1CC
:1005900020020CDA0C3208DD02F1140CC2F10C025C
:1005A00001FA0CF021FA02F10CE002F11402D8BFBA
:1005B000C2F1200C01FA02F120FA0CFCDCBF41EA86
:1005C0000C019040E41AA2BF01EB0451294330BD55
:1005D0006FEA04041F3C1CDA0C340EDC04F1140432
:1005E000C4F1200220FA04F001FA02F340EA030009
:1005F00021FA04F345EA030130BDC4F10C04C4F14F
:10060000200220FA02F001FA04F340EA030029462E
:1006100030BD21FA04F0294630BD94F0000F83F478
:10062000801306BF81F480110134013D4EE77FEA5B
:10063000645C18BF7FEA655C29D094EA050F08BFA7
:1006400090EA020F05D054EA000C04BF1946104688
:1006500030BD91EA030F1EBF0021002030BD5FEACC
:10066000545C05D14000494128BF41F0004130BDF4
:1006700014F580043CBF01F5801130BD01F0004548
:1006800045F0FE4141F470014FF0000030BD7FEABB
:10069000645C1ABF194610467FEA655C1CBF0B46B6
:1006A000024650EA013406BF52EA033591EA030FCD
:1006B00041F4002130BD00BF90F0000F04BF0021C5
:1006C000704730B54FF4806404F132044FF00005F8
:1006D0004FF0000150E700BF90F0000F04BF002171
:1006E000704730B54FF4806404F1320410F00045D7
:1006F00048BF40424FF000013EE700BF42004FEAD2
:10070000E2014FEA31014FEA02701FBF12F07F434E
:1007100093F07F4F81F06051704732F07F4208BF05
:10072000704793F07F4F04BF41F40021704730B50C
:100730004FF4607401F0004521F000411CE700BF58
:1007400050EA010208BF704730B54FF000050AE0DB
:1007500050EA010208BF704730B511F0004502D5DC
:10076000404261EB41014FF4806404F132045FEADE
:10077000915C3FF4D8AE4FF003025FEADC0C18BF87
:1007800003325FEADC0C18BF033202EBDC02C2F179
:10079000200300FA03FC20FA02F001FA03FE40EA0B
:1007A0000E0021FA02F11444BDE600BF4FEA4102F7
:1007B00012F5001215D211D56FF47873B3EB6252B3
:1007C00012D94FEAC12343F0004343EA505311F0DA
:1007D000004F23FA02F018BF404270474FF000006C
:1007E000704750EA013005D111F0004008BF6FF0AA
:1007F000004070474FF00000704700BF08B5074A3F
:10080000136843F010031360032001F019F800206F
:1008100005F056F905F090F8002008BD00200240D0
:10082000034A1168034B1B780B441360704700BFE9
:100830003000002000000020014B1868704700BF06
:100840003000002038B50268936803F00303012BE1
:1008500001D0002038BD0446136813F0010F2ED0DC
:10086000936803F00D03012B09D0036C43F01003D0
:100870000364436C43F0010343640120EAE7936897
:1008800043F002039360036803221A60FFF7D4FF6A
:10089000054623689B6813F0010F0ED0FFF7CCFFCD
:1008A000401B0228F5D9236C43F010032364636CCA
:1008B00043F0010363640120CCE70020CAE7002075
:1008C000C8E7000030B597B000230193002800F07E
:1008D00043810446036C13F0100F52D1036CABB18B
:1008E000002023689A6812F0805F03D09B6813F0A1
:1008F000005F47D0236C23F0120343F010032364FE
:10090000636C43F00103636401203BE04364C36410
:10091000836480F83C3005F02FF823689B6813F05F
:10092000805F01D00020DCE72046FFF78BFF236CBF
:1009300013F0100FD5D10028D3D1236C23F48853A2
:1009400023F0020343F0020323642268936823F038
:10095000405393602268936843F0805393607F4BC9
:100960001B687F4AA2FB03239B0C03EB83035B0002
:10097000019302E0019B013B0193019B002BF9D104
:10098000AFE70020236C13F0100F40F0DC8000284C
:1009900040F0D9802368996811F0040140F0D380B9
:1009A000226C22F4817242F002022264B3F1A04F61
:1009B00014D06C4A93420FD06B4DB3F1A04F0FD0BF
:1009C000684A934269D0694A93426AD0684A93421E
:1009D0006BD00022029205E0664DEEE7654DECE734
:1009E000604A02929A6802F00302012A61D0029BD7
:1009F00023B19A6802F00302012A5FD0AB6823F4A6
:100A0000403362681343AB60627E5303656B012D14
:100A100001D04FF480510B43E1680B43A1680B43B5
:100A200094F8201001294ED0A26A012A0CD0216826
:100A30004E4DA9425AD005F58075A94256D022F4F0
:100A40008052E16A0A4313432268916811F00C0F47
:100A50000CD1D16821F4804121F00201D160217EC6
:100A600094F83020520042EA813213432168CD6865
:100A7000414A2A401343CB602369012B5AD0226894
:100A8000136B23F00F03136300236364236C23F0C1
:100A9000030343F0010323645CE04FF0A0420292A1
:100AA000A0E702F5807202929CE7A2F580720292A2
:100AB00098E71B6813F0010FA6D198E71B6813F0A5
:100AC000010FA1D19AE732B9626A013A43EA42437F
:100AD00043F48033A8E7226C22F0220242F0200285
:100AE0002264626C42F0010262649DE7B2F5307FDD
:100AF00011D0B2F5807F11D0B2F5E07F11D0B2F500
:100B00008A5F11D0B2F5845F11D0B2F5865F98D1BB
:100B10004FF4C07295E74FF4E07292E74FF43072F1
:100B20008FE74FF480728CE74FF4707289E74FF4CF
:100B3000A07286E721680B6B23F00F03E269013A8C
:100B400013430B63A0E7236C23F0120343F010035D
:100B50002364012017B030BD0120FBE71000002006
:100B600083DE1B43000100500007005000040050CA
:100B7000000500500003005007C0F0FF30B496B0ED
:100B80000022019290F83C20012A00F0C281034625
:100B9000012280F83C200068826812F0040F40F0C7
:100BA000AD814A68042A37D8046B02EB4202520036
:100BB0004FF01F0C0CFA02FC24EA0C0C0C6804FA2F
:100BC00002F24CEA020202631868826812F00C0F0B
:100BD0006ED10A68092A52D9846902EB42021E3A90
:100BE0004FF0070C0CFA02FC24EA0C048D6805FA9D
:100BF00002F22243826148691C68E268C2F3C102C2
:100C0000520000FA02F208690138032800F29980C4
:100C1000DFE800F04476818C092A10D8446B02EB9F
:100C2000420252001E3A4FF01F0C0CFA02FC24EA5A
:100C30000C040D6805FA02F222434263C4E70E2A4F
:100C40000ED8846B02EB420252003C3A1F259540BD
:100C500024EA05040D6805FA02F222438263B3E731
:100C6000C46B02EB420252005A3A1F25954024EA17
:100C700005040D6805FA02F22243C263A4E7446941
:100C800002EB42024FF0070C0CFA02FC24EA0C04BF
:100C90008D6805FA02F222434261ACE7206E9E4D58
:100CA0000540086842EA8062154345F00045256624
:100CB0001868826802F00302012A72D0CA68012A09
:100CC00075D0D0F8B02001240D68AC4022EA0402AF
:100CD000C0F8B0201A68B2F1A04F00F093808F489E
:100CE000824200F08D808E4C0968102900F08C80C3
:100CF000112900F09D80122900F09F80002002E160
:100D0000606E854D0540086842EA8062154345F0F3
:100D100000456566CCE7A06E7F4D0540086842EA55
:100D20008062154345F00045A566C1E7E56E7A4847
:100D300028400D6842EA8562024342F00042E266C2
:100D4000B6E7226E02F0F8420868B2EB806F03D17A
:100D5000226E22F0004222661A68506E00F0F840BF
:100D60000C68B0EB846F03D1506E20F000405066E9
:100D70001A68906E00F0F8400C68B0EB846F03D1F5
:100D8000906E20F0004090661A68D06E00F0F84037
:100D90000C68B0EB846F8BD1D06E20F00040D06631
:100DA00086E7026812F0010F88D00020ABE0D0F88F
:100DB000B0200D680124AC402243C0F8B0200A687E
:100DC000092A0ED91D68A86902EB42021B3A0724C2
:100DD000944020EA04008C6804FA02F20243AA61FB
:100DE00078E71D686869013202EB420207249440EB
:100DF00020EA04008C6804FA02F202436A6169E79F
:100E0000484C71E7474C6FE7A06810F4000F7FF47F
:100E10006FAFB2F1A04F16D0404882422AD042486C
:100E200082422BD0414882422CD0002002900CE01C
:100E3000A06810F0807FECD05DE7A06810F4800F10
:100E4000E7D000205FE035480290906800F0030092
:100E500001281BD0029828B1856805F0030CBCF16D
:100E6000010F1DD0102920D0112938D012293FD0D0
:100E7000002048E04FF0A0400290E6E700F58070C7
:100E80000290E2E7A0F580700290DEE7106810F0B3
:100E9000010FDFD01A6C42F020021A64012032E008
:100EA000006810F0010FF5D1DCE7B2F1A04FDBD103
:100EB000A26842F40002A2601D4A12681D49A1FB0B
:100EC0000212920C02EB82025200019202E0019A9D
:100ED000013A0192019A002AF9D1002013E0B2F1FF
:100EE000A04FC3D1A26842F08072A26000200AE045
:100EF000A26842F48002A260002004E01A6C42F072
:100F000020021A640120002283F83C2016B030BC75
:100F100070470220FAE700BF00F0FF830001005095
:100F2000000700500003005000040050000500506E
:100F30001000002083DE1B4330B494B003460268E7
:100F4000B2F1A04F0BD04E4882424BD04D48824266
:100F50004CD04D4882424DD00020009001E04848DE
:100F600000900098002800F0878093F83CC0BCF106
:100F7000010F00F08380012483F83C40946814F052
:100F8000040F6ED1846814F0040F6AD1B2F1A04F3F
:100F900036D03B4CA24231D03C4A0C68002C3DD0AC
:100FA000946824F4604493F830C04D6845EA4C3CA2
:100FB00044EA0C0494601D68AC6804F00304012C3E
:100FC00020D0846804F00304012C21D0906820F420
:100FD000716020F00F000C6889682143084390601D
:100FE000002043E04FF0A0400090BAE700F5807089
:100FF0000090B6E7A0F580700090B2E7244ACCE7F5
:10100000234ACAE72C6814F0010FDAD000202DE043
:10101000006810F0010FD9D0002027E0916821F47A
:10102000604191601C68A16801F0030101290CD0A6
:10103000816801F0030101290DD0916821F47161EB
:1010400021F00F019160002010E0216811F0010FE4
:10105000EED000200AE0016811F0010FEDD0002071
:1010600004E01A6C42F020021A640120002283F886
:101070003C2014B030BC70470120FAE70220F8E7AA
:10108000000100500004005000050050000700500F
:1010900000030050002800F0A18038B5044690F805
:1010A0002030D3B12268136823F002031360FFF7E6
:1010B000C3FB054623685A6812F0020F10D0FFF7F1
:1010C000BBFB401B0A28F5D9636A43F40033636213
:1010D000052384F82030012038BD04F07BFCE1E7D3
:1010E0001A6842F001021A60FFF7A6FB0546236862
:1010F0005A6812F0010F0DD1FFF79EFB401B0A2822
:10110000F5D9636A43F400336362052384F8203021
:101110000120E1E7227E012A3DD01A6822F08002F8
:101120001A60637E012B3BD02268136823F04003D2
:101130001360A37E012B39D02268136823F02003AB
:101140001360E37E012B37D02268136843F010034D
:101150001360237F012B35D02268136823F0080326
:101160001360637F012B33D02268136823F00403DC
:101170001360A368E268134322691343626913434F
:101180006268013A21681343CB6100206062012349
:1011900084F82030A0E71A6842F080021A60C0E7A5
:1011A0002268136843F040031360C2E722681368A3
:1011B00043F020031360C4E72268136823F0100390
:1011C0001360C6E72268136843F008031360C8E79A
:1011D0002268136843F004031360CAE701207047D4
:1011E000026890F82030013BDBB2012B05D9436A3D
:1011F00043F4802343620120704730B4D2F80032B8
:1012000043F00103C2F800324B6903F01F030120D1
:1012100000FA03F3D2F81C026FEA030C20EA030081
:10122000C2F81C02C869B0B9D2F80C020CEA00007E
:10123000C2F80C028C884869CD6844EA05444830FD
:1012400042F830400C8848698D6844EA05444830CB
:1012500002EBC0004460C86901281BD0886980BBCC
:10126000D2F804020CEA0000C2F80402086970BB5C
:10127000D2F814020CEA0000C2F81402096A01292B
:101280002BD0D2F8003223F00103C2F80032002044
:1012900030BC7047D2F80C021843C2F80C028C889C
:1012A00048690D6844EA0544483042F830408C896A
:1012B00048698D6844EA0544483002EBC000446048
:1012C000CCE7D2F804021843C2F80402CEE7D2F801
:1012D00014021843C2F81402D0E7D2F81C120B43D0
:1012E000C2F81C32CDE770B5044690F82050EDB23C
:1012F000012D06D0436A43F40023436201252846AA
:1013000070BD022380F820300268136823F00103C7
:101310001360FFF791FA064623685B6813F0010F2C
:101320000CD0FFF789FA831B0A2BF5D9636A43F4C3
:1013300000336362052384F82030E0E7002565620E
:10134000DDE730B590F820C00468A4680CF1FF3CDC
:101350005FFA8CFCBCF1010F6BD814F0E05F62D037
:10136000C4F3016CBCF1020F05D9436A43F40003D6
:101370004362012062E0012404FA0CF41C608B68D3
:10138000002B3DD10D68CB68046843EA45550CF14C
:1013900018031B01E55003680C690CF1180E03EBF0
:1013A0000E135C600B7D012B35D0D17993791B0432
:1013B00043EA0163517943EA012314790168234325
:1013C00001EB0C11C1F88C31D17893781B0443EAFE
:1013D0000163517843EA0123117802680B4302EB61
:1013E0000C12C2F8883102680CF1180C4FEA0C1C80
:1013F00052F80C3043F0010342F80C3000201DE09D
:101400004C6843EAC403CC6823430CF1180424015C
:1014100005682B51BFE7036803EB0E13596841F4CD
:1014200080715960C1E7436A43F4001343620120AD
:1014300004E0436A43F480234362012030BD90F806
:101440002030013BDBB2012B01D90020704703683B
:10145000986810F0806000D001209A6812F0006F48
:1014600000D001309B6813F0805FEFD001307047EF
:1014700090F820C00CF1FF3C5FFA8CFCBCF1010F2E
:1014800000F2958030B451B90468E46814F0030F99
:1014900010D1436A43F400134362012077E00468EB
:1014A000246914F0030F05D1436A43F40013436227
:1014B00001206CE001F11B04240105682C5904F0A3
:1014C00004049460002C64D101F11B04240105681C
:1014D0002C59640D1460046801F11B0C4FEA0C1CBC
:1014E00054F80C4004F00204D46004686444646856
:1014F00004F00F041461046864446468C4F30724AE
:101500009461046864446468240C5461026802EBCA
:101510000112D2F8B8211A70026802EB0112D2F857
:10152000B821C2F307225A70026802EB0112D2F806
:10153000B821C2F307429A70026802EB0112D2F896
:10154000B821120EDA70026802EB0112D2F8BC2147
:101550001A71026802EB0112D2F8BC21C2F3072211
:101560005A71026802EB0112D2F8BC21C2F30742A1
:101570009A71026802EB0112D2F8BC21120EDA71E4
:1015800079B90268D36843F02003D360002030BCEF
:10159000704701F11B04240105682C59E4085460CC
:1015A00099E70268136943F020031361EEE7436A89
:1015B00043F4802343620120704790F82030013BC0
:1015C000DBB2012B05D9436A43F480234362012037
:1015D0007047026853691943516100207047704792
:1015E0007047704770477047704770477047704743
:1015F0007047704770472DE9F84F054603685C69EE
:10160000D3F804809F68D3F80CB0D3F810A0D3F8B7
:10161000189014F001063BD017F0010616D00122F5
:101620009A6017F0020F08D117F0040F0CD117F0D1
:10163000080606D04FF4805608E0FFF7D0FF0026DA
:1016400004E0FFF7CFFF01E04FF4006617F4807F5E
:101650000DD02B684FF480729A6017F4007F40F031
:10166000868017F4806F00F0868046F4005617F4E9
:10167000803F0DD02B684FF480329A6017F4003F02
:1016800040F0838017F4802F00F0838046F40046FA
:1016900014F0080F07D01BF0100F04D046F40076AA
:1016A0002B681022DA6014F0040F02D01BF0080F30
:1016B00079D114F0020F04D02B68DB6813F0030F0C
:1016C00078D114F0400F07D01AF0100F04D046F470
:1016D00080662B6810221A6114F0200F02D01AF0D5
:1016E000080F6BD114F0100F04D02B681B6913F096
:1016F000030F6AD114F4003F02D018F0100F68D124
:1017000014F4803F02D018F0080F69D114F4004F90
:101710007AD018F0040F74D014F4807F04D019F03C
:10172000010F01D046F0010614F4007F04D019F037
:10173000020F01D046F0020614F4806F04D019F0B5
:10174000040F01D046F0040614F4006F59D019F0CC
:10175000700956D0B9F1400F65D058D8B9F1200FB3
:101760005ED0B9F1300F42D146F0200644E0284661
:10177000FFF736FF7BE717F4006F02D046F4804690
:1017800075E72846FFF72FFF71E72846FFF729FF87
:101790007EE717F4002F02D046F4803678E728461B
:1017A000FFF722FF74E72B680822DA602846FFF76C
:1017B0001CFF7EE7284603F041FB82E72B680822E6
:1017C0001A612846FFF713FF8CE72846FFF70EFF44
:1017D00090E72B6810225A602846FFF709FF8FE731
:1017E0002B6808225A602846FFF703FF8EE7B9F1FD
:1017F000100F01D146F008062A68936923F07003A0
:1018000093612B6804225A609EB9BDE8F88FB9F144
:10181000500F0BD0B9F1600FEED146F48076EBE7B4
:1018200046F01006E8E746F04006E5E746F0800699
:10183000E2E76B6A1E436E622846FFF7DBFEE4E7D1
:10184000074AD36823F4E0631B041B0C000200F476
:10185000E060034343F0BF6343F40033D360704759
:1018600000ED00E000B5194BDB68C3F30223C3F1C0
:10187000070CBCF1040F28BF4FF0040C03F1040E59
:10188000BEF1060F18D9033B4FF0FF3E0EFA0CFCD9
:1018900021EA0C0199400EFA03F322EA03031943EB
:1018A00000280BDB0901C9B200F1604000F561407E
:1018B00080F800135DF804FB0023E5E700F00F005B
:1018C0000901C9B2024B1954F4E700BF00ED00E072
:1018D00014ED00E0002807DB00F01F02400901239F
:1018E0009340024A42F82030704700BF00E100E018
:1018F000F0B583B0002236E0062400E00024B440B6
:101900003C430235634E46F82540634C2568DC4372
:1019100025EA03064F6817F4803F01D043EA050625
:101920005D4D2E606D6804EA05064F6817F4003FB0
:1019300001D043EA0506584D6E60AD6804EA05061D
:101940004F6817F4801F01D043EA0506524DAE6080
:10195000ED682C404E6816F4001F01D043EA0504E0
:101960004D4BDC6001320B6833FA02F400F08F80DB
:101970004FF0010C0CFA02FC1CEA0303F2D04C6895
:10198000022C01D0122C10D1D508083550F8257042
:1019900002F00704A6000F24B44027EA040E0C69E5
:1019A000B44044EA0E0440F8254005684FEA420E70
:1019B000032404FA0EF4E64325EA04054C6804F017
:1019C000030404FA0EF42C4304604C68651E012DD8
:1019D00003D9112C01D0122C10D185683540CC6868
:1019E00004FA0EF42C438460456825EA0C0C4D681B
:1019F000C5F30015954045EA0C054560C4682640CE
:101A00008C6804FA0EF43443C4604C6814F0805FB0
:101A1000A8D0224CA56945F00105A561A46904F090
:101A200001040194019C9508AE1C1A4C54F82670D0
:101A300002F00304A6000F24B44027EA0407B0F123
:101A4000904F3FF45BAF164CA04216D004F5806473
:101A5000A04214D004F58064A04212D004F5806442
:101A6000A04210D004F58064A0420ED004F580643A
:101A7000A0423FF441AF072441E701243FE702249D
:101A80003DE703243BE7042439E7052437E703B0A7
:101A9000F0BD00BF00000140000401400010024002
:101AA000000400480369194201D00120704700205A
:101AB00070470AB1816170478162704782B0084AFD
:101AC000916941F001019161926902F00102019274
:101AD000019B044A13680343136002B0704700BFC0
:101AE0000010024000000140002800F00A8370B599
:101AF00082B00446036813F0010F3DD0B34B5B681E
:101B000003F00C03042B20D0B04B5B6803F00C03F4
:101B1000082B13D06368B3F5803F6AD0002B40F0E8
:101B20008D8003F1804303F504331A6822F4803278
:101B30001A601A6822F480221A605FE0A34B5B6887
:101B400003F4C033B3F5803FE4D14FF4003393FA8C
:101B5000A3F39E4B19684FF4003393FAA3F3B3FA3F
:101B600083F303F01F03012202FA03F30B4203D0B5
:101B70006368002B00F0C782236813F0020F00F0A7
:101B8000C080924B5B6813F00C0F00F097808F4B76
:101B90005B6803F00C03082B00F08880E368002BDF
:101BA00000F0ED80012292FAA2F3B3FA83F303F17D
:101BB000845303F584139B001A60FEF73DFE05462F
:101BC000022393FAA3F3814B1968022393FAA3F338
:101BD000B3FA83F303F01F03012202FA03F30B426B
:101BE00040F0BE80FEF728FE401B0228E8D9032003
:101BF00092E2764A136843F4803313606368002BE3
:101C000036D0FEF719FE05464FF4003393FAA3F3DE
:101C10006E4B19684FF4003393FAA3F3B3FA83F3CE
:101C200003F01F03012202FA03F30B42A4D1FEF7D3
:101C300003FE401B6428E7D903206DE2B3F5A02F13
:101C400009D0624B1A6822F480321A601A6822F4B2
:101C500080221A60D2E703F18043A3F53C331A686F
:101C600042F480221A601A6842F480321A60C5E792
:101C7000FEF7E2FD05464FF4003393FAA3F3534B0E
:101C800019684FF4003393FAA3F3B3FA83F303F024
:101C90001F03012202FA03F30B423FF46DAFFEF77C
:101CA000CBFD401B6428E6D9032035E2474B5B6837
:101CB00003F4C033B3F5004F7FF470AF022393FAFF
:101CC000A3F3424B1968022393FAA3F3B3FA83F305
:101CD00003F01F03012202FA03F30B4203D0E3686F
:101CE000934240F012823948036823F0F8032169D7
:101CF000F82292FAA2F2B2FA82F201FA02F2134345
:101D00000360236813F0080F00F08C806369002BD8
:101D100060D0012191FAA1F2B2FA82F22C4B134465
:101D20009B001960FEF788FD0546022393FAA3F293
:101D300093FAA3F293FAA3F2244A516A93FAA3F313
:101D4000B3FA83F303F01F03012202FA03F30B42F9
:101D500068D1FEF771FD401B0228E6D90320DBE1C4
:101D60001A48036823F0F8032169F82292FAA2F2D4
:101D7000B2FA82F201FA02F213430360C1E70123CF
:101D800093FAA3F3B3FA83F303F1845303F58413B3
:101D90009B0000221A60FEF74FFD0546022393FACE
:101DA000A3F30A4B1968022393FAA3F3B3FA83F35C
:101DB00003F01F03012202FA03F30B42A1D0FEF746
:101DC0003BFD401B0228E9D90320A5E10010024099
:101DD00020819010012292FAA2F2B2FA82F29C4B78
:101DE00013449B0000221A60FEF726FD05460223DD
:101DF00093FAA3F293FAA3F293FAA3F2954A516AE3
:101E000093FAA3F3B3FA83F303F01F03012202FA58
:101E100003F30B4206D0FEF70FFD401B0228E6D964
:101E2000032079E1236813F0040F00F0A980894BA7
:101E3000DB6913F0805F20D1864BDA6942F0805273
:101E4000DA61DB6903F080530193019B0125824B2A
:101E50001B6813F4807F12D0A368012B23D073BBBF
:101E600003F1804303F504331A6A22F001021A6277
:101E70001A6A22F004021A621AE00025E7E7764A9D
:101E8000136843F480731360FEF7D6FC0646724B6A
:101E90001B6813F4807FDFD1FEF7CEFC801B642823
:101EA000F5D9032038E16B4A136A43F0010313624A
:101EB000A368002B3CD0FEF7BFFC06462BE0052BA9
:101EC00009D0644B1A6A22F001021A621A6A22F0DF
:101ED00004021A62ECE75F4B1A6A42F004021A62CB
:101EE0001A6A42F001021A62E2E75A4B196A0223A7
:101EF00093FAA3F3B3FA83F303F01F03012202FA68
:101F000003F319423BD1FEF797FC801B41F2883363
:101F1000984200F2FC80022393FAA3F293FAA3F30F
:101F2000002BE2D1022393FAA3F34A4B596ADEE76E
:101F3000FEF782FC064615E0464B196A022393FA27
:101F4000A3F3B3FA83F303F01F03012202FA03F3AE
:101F5000194214D0FEF770FC801B41F2883398427E
:101F600000F2D780022393FAA3F293FAA3F3002B93
:101F7000E2D1022393FAA3F3364B596ADEE7B5BBED
:101F8000A369002B00F0C780324A526802F00C02AD
:101F9000082A00F0A080022B2FD04FF0807393FA14
:101FA000A3F3B3FA83F303F1845303F584139B0083
:101FB00000221A60FEF740FC04464FF0007393FACB
:101FC000A3F3244B19684FF0007393FAA3F3B3FA09
:101FD00083F303F01F03012202FA03F3194278D0BE
:101FE000FEF72AFC001B0228E7D9032094E0194AD7
:101FF000D36923F08053D361C2E74FF0807393FA23
:10200000A3F3B3FA83F303F1845303F584139B0022
:1020100000221A60FEF710FC05464FF0007393FA99
:10202000A3F30C4B19684FF0007393FAA3F3B3FAC0
:1020300083F303F01F03012202FA03F319420DD0C8
:10204000FEF7FAFB401B0228E7D9032064E000BF3B
:10205000208190100010024000700040334AD36A83
:1020600023F00F03616A0B43D362536823F47613A2
:10207000216AE06901430B4353604FF0807393FA88
:10208000A3F3B3FA83F303F1845303F584139B00A2
:1020900001221A60FEF7D0FB04464FF0007393FA5A
:1020A000A3F3224B19684FF0007393FAA3F3B3FA2A
:1020B00083F303F01F03012202FA03F3194206D14E
:1020C000FEF7BAFB001B0228E7D9032024E000201A
:1020D00022E0002020E0012B20D0144A5368D06A6F
:1020E00003F4C031E26991421AD103F47013226AF9
:1020F000934217D100F00F00636A984214D1002078
:102100000AE001207047012006E0012004E00320DE
:1021100002E0032000E0002002B070BD0120FBE7D8
:102120000120F9E70120F7E70120F5E70010024060
:10213000174B5B6803F00C02082A01D01548704762
:1021400003F470114FF4701292FAA2F2B2FA82F212
:1021500021FA02F21049885C0D4AD26A02F00F029D
:102160000F2191FAA1F1B1FA81F1CA400B498A5CC1
:1021700013F4803F05D0074BB3FBF2F303FB00F0F1
:102180007047044BB3FBF2F303FB00F0704700BF52
:102190000010024000127A00085D0008185D000877
:1021A000002800F0BE8070B50D460446614B1B68E8
:1021B00003F007038B420BD25E4A136823F0070338
:1021C0000B431360136803F007038B4240F0AB80AE
:1021D000236813F0020F06D0574A536823F0F00328
:1021E000A1680B435360236813F0010F5AD0636852
:1021F000012B2DD0022B40D0022292FAA2F24E4A9D
:102200001068022292FAA2F2B2FA82F202F01F02DF
:10221000012101FA02F2104200F0878046494A6823
:1022200022F0030213434B60FEF706FB0646424BC7
:102230005B6803F00C036268B3EB820F32D0FEF7E9
:10224000FBFA801B41F288339842F0D9032067E003
:102250004FF4003292FAA2F2374A10684FF400327B
:1022600092FAA2F2B2FA82F202F01F02012101FAFE
:1022700002F20242D2D1012052E04FF0007292FAF3
:10228000A2F22D4A10684FF0007292FAA2F2B2FA4E
:1022900082F202F01F02012101FA02F21042BDD1C6
:1022A00001203DE0234B1B6803F00703AB420AD932
:1022B000204A136823F007032B431360136803F0CD
:1022C0000703AB4233D1236813F0040F06D01A4A38
:1022D000536823F4E063E1680B435360236813F011
:1022E000080F07D0144A536823F46053216943EA66
:1022F000C1035360FFF71CFF0F4B5B6803F0F00353
:10230000F02292FAA2F2B2FA82F2D3400B4AD35CE4
:10231000D8400B4B18600B4B186803F0D1FB002022
:1023200070BD012070470120FAE70120F8E7012085
:10233000F6E700BF00200240001002408C5D00085C
:102340001000002004000020014B1868704700BFF7
:102350001000002008B5FFF7F7FF074B5B6803F498
:10236000E0634FF4E06292FAA2F2B2FA82F2D34052
:10237000024AD35CD84008BD001002409C5D0008B2
:1023800008B5FFF7E1FF074B5B6803F460534FF4B8
:10239000605292FAA2F2B2FA82F2D340024AD35CBD
:1023A000D84008BD001002409C5D00080F23036068
:1023B0000B4B5A6802F0030242605A6802F0F002C6
:1023C00082605A6802F4E062C2605B68DB0803F472
:1023D000E0630361034B1B6803F007030B60704766
:1023E0000010024000200240F0B583B004460368AC
:1023F00013F4803F48D0A14BDB6913F0805F40F0BD
:1024000021819E4BDA6942F08052DA61DB6903F088
:1024100080530193019B0125994B1B6813F4807F26
:1024200000F01281954B1B6A13F4407322D062684E
:1024300002F440729A421DD09048016A21F440761D
:102440004FF4803393FAA3F2B2FA82F28D4F3A44FA
:1024500092004FF0010CC2F800C093FAA3F3B3FA54
:1024600083F33B449B0000221A60066211F0010FC7
:1024700040F0FF80814A136A23F4407361680B4384
:102480001362002D40F02381236813F0010F06D062
:102490007A4A136B23F00303A1680B431363236889
:1024A00013F0020F06D0754A136B23F44033E16832
:1024B0000B431363236813F0040F06D06F4A136BAA
:1024C00023F4402321690B431363236813F0200F87
:1024D00006D06A4A136B23F01003E1690B431363C0
:1024E000236813F4003F06D0644A536823F4800342
:1024F000616D0B435360236813F0400F06D05F4AB1
:10250000136B23F02003216A0B431363236813F436
:10251000802F06D0594A136B23F04003616A0B43A6
:102520001363236813F0080F06D0544A136B23F487
:10253000401361690B431363236813F0100F06D037
:102540004E4A136B23F44003A1690B4313632368C2
:1025500013F4007F06D0494A536823F40003216B2B
:102560000B435360236813F0800F06D0434AD36AAD
:1025700023F4F873A16A0B43D362236813F4807FBA
:1025800006D03E4AD36A23F47853E16A0B43D36200
:10259000236813F4805F06D0384A136B23F48073EA
:1025A000616B0B431363236813F4005F06D0334A57
:1025B000136B23F40073216C0B431363236813F430
:1025C000801F06D02D4A136B23F08073A16B0B4341
:1025D0001363236813F4001F06D0284A136B23F0FB
:1025E0000073E16B0B431363236813F4800F06D071
:1025F000224A136B23F48063616C0B4313632368DB
:1026000013F4000F06D01D4A136B23F40063A16C72
:102610000B431363236813F0807F06D0174A136BB4
:1026200023F40053E16C0B431363236813F0007F22
:1026300054D0124A136B23F40043216D0B431363F0
:1026400000204CE00025E7E60D4A136843F4807350
:102650001360FEF7F1F80646094B1B6813F4807F00
:102660007FF4E0AEFEF7E8F8801B6428F4D903207D
:1026700035E0FEF7E1F806461CE000BF001002401E
:102680000070004000819010164B196A022393FAE3
:10269000A3F3B3FA83F303F01F03012202FA03F357
:1026A0000B427FF4E7AEFEF7C7F8801B41F2883398
:1026B000984211D8022393FAA3F293FAA3F3002BC2
:1026C000E2D1022393FAA3F3064B596ADEE7D369FA
:1026D00023F08053D361D7E6032000E0002003B04D
:1026E000F0BD00BF00100240704700000268D368D0
:1026F00043F00103D36002689168064B0B40062B40
:1027000006D0B3F5803F03D0136843F00103136094
:1027100000207047070001007047704770477047FE
:1027200010B5044603681A6912F0020F11D0DA6876
:1027300012F0020F0DD06FF002021A61012303772D
:1027400003689B6913F0030F79D0FFF7E6FF0023BE
:10275000237723681A6912F0040F12D0DA6812F096
:10276000040F0ED06FF004021A610223237723684E
:102770009B6913F4407F68D02046FFF7CEFF00230B
:10278000237723681A6912F0080F12D0DA6812F062
:10279000080F0ED06FF008021A6104232377236814
:1027A000DB6913F0030F57D02046FFF7B6FF002375
:1027B000237723681A6912F0100F12D0DA6812F02A
:1027C000100F0ED06FF010021A61082323772368D0
:1027D000DB6913F4407F46D02046FFF79EFF0023BD
:1027E000237723681A6912F0010F03D0DA6812F018
:1027F000010F3FD123681A6912F0800F03D0DA6805
:1028000012F0800F3DD123681A6912F4807F03D043
:10281000DA6812F0800F3BD123681A6912F0400F7A
:1028200003D0DA6812F0400F39D123681A6912F028
:10283000200F03D0DA6812F0200F37D110BDFFF758
:102840006BFF2046FFF76AFF81E72046FFF764FF32
:102850002046FFF763FF92E72046FFF75DFF204623
:10286000FFF75CFFA3E72046FFF756FF2046FFF780
:1028700055FFB4E76FF001021A61204602F0AAFD8D
:10288000B8E76FF080021A61204600F09AF8BAE7C4
:102890006FF480721A61204600F094F8BCE76FF084
:1028A00040021A612046FFF73AFFBEE76FF02002B0
:1028B0001A61204600F084F8C0E700000368324A3D
:1028C000904212D0B0F1804F0FD0A2F594329042D6
:1028D0000BD002F58062904207D002F5963290420A
:1028E00003D002F5E052904203D123F070034A680E
:1028F0001343254A90421ED0B0F1804F1BD0A2F561
:102900009432904217D002F58062904213D002F5C3
:10291000963290420FD002F5406290420BD002F501
:102920008062904207D002F58062904203D002F5A7
:102930000062904203D123F44073CA68134323F02A
:1029400080034A69134303608B68C3620B68836228
:102950000D4B984213D003F5006398420FD003F556
:10296000406398420BD003F58063984207D003F58B
:102970008063984203D003F50063984201D10B694C
:102980000363012343617047002C0140B0B110B5CF
:10299000044690F83D3063B1022384F83D3021466F
:1029A00051F8040BFFF78AFF012384F83D30002023
:1029B00010BD80F83C30FFF797FEEDE7012070472F
:1029C000704770477047000038B504468368026955
:1029D000134342691343C2691343016808689B4A61
:1029E000024013430B602268536823F44053E168AC
:1029F0000B435360A269236A1A4321688B6823F44E
:102A0000306313438B602368914A93420DD0914AFF
:102A100093421CD0904A93423ED0904A93424ED06B
:102A20008F4A93425ED010251FE08E4B1B6B03F044
:102A30000303032B09D8DFE803F00204066801252D
:102A400013E0042511E008250FE010250DE0854B6B
:102A50001B6B03F44033B3F5003F58D017D8002B5D
:102A600057D0B3F5803F56D10425E369B3F5004F45
:102A70006DD0082D00F2F880DFE815F0B700C00037
:102A8000CA00F600D500F600F600F600DF00B3F548
:102A9000403F42D10225E8E7724B1B6B03F4402311
:102AA000B3F5002F3BD005D8DBB3B3F5802F3AD177
:102AB0000425DAE7B3F5402F37D10225D5E7694B76
:102AC0001B6B03F44013B3F5001F30D005D883B35C
:102AD000B3F5801F2FD10425C7E7B3F5401F2CD1D4
:102AE0000225C2E75F4B1B6B03F44003B3F5000FF5
:102AF00025D005D82BB3B3F5800F24D10425B4E736
:102B0000B3F5400F21D10225AFE70225ADE7082537
:102B1000ABE70025A9E71025A7E71025A5E70825BD
:102B2000A3E70025A1E710259FE710259DE70825CD
:102B30009BE7002599E7102597E7102595E70825DD
:102B400093E7002591E710258FE710258DE7082DE5
:102B50003AD8DFE805F0050F1A3925393939300040
:102B6000FFF7F8FB6268530803EB4003B3FBF2F393
:102B70009BB22BE0FFF704FC6268530803EB4003B1
:102B8000B3FBF2F39BB2002520E06268530803F523
:102B9000740303F51053B3FBF2F39BB2002515E069
:102BA000FFF7C6FA6268530803EB4003B3FBF2F386
:102BB0009BB200250AE06268530803F58033B3FB3B
:102BC000F2F39BB2002501E001250023A3F11001DF
:102BD0004FF6EF72914256D89AB222F00F02C3F329
:102BE000420313432268D36048E0FFF7B3FB6268F7
:102BF00000EB5203B3FBF2F39BB237E0FFF7C0FBED
:102C0000626800EB5203B3FBF2F39BB200252DE0A8
:102C10006268530803F5F40303F59053B3FBF2F332
:102C20009BB2002522E0FFF783FA626800EB5203B3
:102C3000B3FBF2F39BB2002518E06268530803F57A
:102C40000043B3FBF2F39BB200250FE0F369FFEF03
:102C5000003801400044004000480040004C004063
:102C6000005000400010024001250023A3F1100194
:102C70004FF6EF72914208D82268D3600023236692
:102C80006366284638BD0125F8E70125F6E700BF51
:102C9000436A13F0010F06D00268536823F400332F
:102CA000816A0B435360436A13F0020F06D0026837
:102CB000536823F48033C16A0B435360436A13F0B3
:102CC000040F06D00268536823F48023016B0B4382
:102CD0005360436A13F0080F06D00268536823F468
:102CE0000043416B0B435360436A13F0100F06D04F
:102CF0000268936823F48053816B0B439360436AAB
:102D000013F0200F06D00268936823F40053C16BC0
:102D10000B439360436A13F0400F0AD00268536874
:102D200023F48013016C0B435360036CB3F5801FD5
:102D30000BD0436A13F0800F06D00268536823F467
:102D40000023816C0B43536070470268536823F47F
:102D5000C003416C0B435360EBE72DE9F843054694
:102D60000F4616469946DDF820802C68E46937EA5C
:102D700004030CBF4FF0010C4FF0000CB4453CD1E4
:102D8000B8F1FF3FF1D0FDF757FDA0EB090040453A
:102D900021D8B8F1000F1ED02B681A6812F0040F6A
:102DA000E3D0DA6912F4006FDFD04FF400621A62E8
:102DB0002A68136823F4D07313602A68936823F099
:102DC0000103936020236B67AB67EB67002385F8F3
:102DD0007030032012E02A68136823F4D073136064
:102DE0002A68936823F00103936020236B67AB6725
:102DF000002385F87030032000E00020BDE8F88350
:102E000030B583B004460023C367FDF715FD0546C2
:102E10002268126812F0080F0CD123681B6813F0A7
:102E2000040F15D120236367A367002084F8700086
:102E300003B030BD6FF07E430093034600224FF491
:102E400000112046FFF789FF0028E6D00320EFE7B6
:102E50006FF07E4300932B4600224FF48001204602
:102E6000FFF77BFF0028DDD00320E1E768B310B552
:102E70000446436F03B3242363672268136823F077
:102E8000010313602046FFF79FFD012813D0636AFA
:102E9000BBB92268536823F4904353602268936857
:102EA00023F02A0393602268136843F00103136040
:102EB0002046FFF7A5FF10BD80F8703002F0CEFD70
:102EC000D9E72046FFF7E4FEE3E7012070478428B6
:102ED00001D0033070470020704708B501F044F975
:102EE000002008BD2DE9F04387B004460F46456930
:102EF000BDB18669AEB1D0F80480D0F80090B0F9C9
:102F00000800FFF7E4FF0296019500903B46226916
:102F10004946404601F0BAF80590059807B0BDE86B
:102F2000F08365682668D4F81080B4F90800FFF7CC
:102F3000CEFF05AB019300903B461FFA88F2314665
:102F4000284601F0DDF80128E7D00020E6E708B5C3
:102F500000B9012001F078FA002008BD08B54168E9
:102F600019B1012000F03DFD08BD012000F02EFD4B
:102F7000FAE700F1080343604FF0FF328260C3605C
:102F800003610023036070470023036170474368B7
:102F90004B609A688A6051609960086103680133E8
:102FA0000360704730B40D68B5F1FF3F11D000F1F8
:102FB00008031C465B681A68AA42FAD963684B602A
:102FC00099608C606160086103680133036030BC04
:102FD00070470469F2E70369416882688A60416862
:102FE00051605A68824206D0002202611A68013A92
:102FF0001A601868704782685A60F5E782B000234B
:1030000001930D4B1B68B3F1FF3F08D04FF0500305
:1030100083F31188BFF36F8FBFF34F8FFEE74FF03D
:10302000500383F31188BFF36F8FBFF34F8F019B62
:10303000002BFCD002B07047080000200848006850
:10304000006880F308884FF0000080F3148862B6AF
:1030500061B6BFF34F8FBFF36F8F00DF00BF00007B
:1030600008ED00E0DFF80C00016841F47001016038
:103070007047000088ED00E04FF0807340F8043C9A
:1030800021F0010140F8081C054B40F80C3C40F8C9
:10309000202C6FF0020340F8243C4438704700BFF6
:1030A000FD2F0008000000000000000000000000EC
:1030B000074B19680868B0E8F04F80F30988BFF340
:1030C0006F8F4FF0000080F311887047AFF30080DE
:1030D000540C00204FF0500383F31188BFF36F8F1F
:1030E000BFF34F8F0B4A136801331360012B00D0DD
:1030F00070474FF0E023D3F8043D13F0FF0FF7D0F3
:103100004FF0500383F31188BFF36F8FBFF34F8FDE
:10311000FEE700BF08000020094B1B6843B94FF0D1
:10312000500383F31188BFF36F8FBFF34F8FFEE718
:10313000013B034A13600BB983F31188704700BF4A
:103140000800002000000000000000000000000057
:10315000EFF30980BFF36F8F154B1A681EF0100F45
:1031600008BF20ED108A20E9F04F10602DE909001A
:103170004FF0500080F31188BFF34F8FBFF36F8F74
:1031800001F088F94FF0000080F3118809BC19683C
:103190000868B0E8F04F1EF0100F08BFB0EC108ABE
:1031A00080F30988BFF36F8F704700BFAFF30080D3
:1031B000540C002008B54FF0500383F31188BFF37F
:1031C0006F8FBFF34F8F01F011F828B14FF0E0235C
:1031D0004FF08052C3F8042D002383F3118808BDFB
:1031E0004FF0E022002313619361054B1B680549F2
:1031F000A1FB03139B09013B536107231361704734
:1032000010000020D34D62104FF0E023D3F8002DC2
:103210003D4B9A421CD04FF0E023D3F8002D3B4B9E
:103220009A421ED030B583B0394B1A78D2B201928F
:10323000FF221A701B78DBB28DF803309DF8033043
:1032400003F05003334A1370334B07221A601BE01C
:103250004FF0500383F31188BFF36F8FBFF34F8F8D
:10326000FEE74FF0500383F31188BFF36F8FBFF376
:103270004F8FFEE7284A1368013B13609DF8033027
:103280005B00DBB28DF803309DF8033013F0800F44
:10329000F0D1214B1B68032B08D04FF0500383F370
:1032A0001188BFF36F8FBFF34F8FFEE71B021A4ADF
:1032B000136003F4E0631360019BDBB2144A1370E4
:1032C0004FF0E024D4F8203D43F47003C4F8203DCF
:1032D000D4F8203D43F07043C4F8203DFFF780FF51
:1032E00000250E4B1D60FFF7BDFED4F8343F43F0C0
:1032F0004043C4F8343FFFF7A1FE01F0CBF8FFF7DD
:103300007DFE284603B030BD71C20F4170C20F412F
:1033100000E400E034000020380000200800002015
:10332000EFF305830F2B0FD9114A9B5CDBB2114AD7
:1033300012789A4208D94FF0500383F31188BFF3F3
:103340006F8FBFF34F8FFEE74FF0E023D3F80C3DB4
:1033500003F4E063084A1268934208D94FF050031F
:1033600083F31188BFF36F8FBFF34F8FFEE7704772
:10337000F0E300E03400002038000020124A12F090
:10338000070F1ED0D11D21F00701C1F54063134482
:103390000A460E480260002141601344083B23F0B6
:1033A00007030B48036059601960991A5160136054
:1033B000084B1960084B1960084B4FF000421A6027
:1033C00070474FF44063E4E7400000204C0C0020BD
:1033D0003C000020480C0020440C0020400C002041
:1033E000164B1A461B688342FBD3516802EB010C53
:1033F000844509D0416800EB010C634509D00360A6
:10340000904219D0106070474068014451601046E6
:10341000F0E710B40A4C2468A3420BD05B6819444F
:10342000416013681B680360904200D010605DF833
:10343000044B70470460F7E7704700BF4C0C002056
:103440003C00002070B5054600F0C8FE344B1B68F8
:10345000A3B1344B1B681D424AD135B1083515F074
:10346000070F02D025F007050835002D42D02E4B5E
:103470001B68AB424DD32D4A146804E0FFF77EFF72
:10348000E7E722461C466368AB4202D22368002B62
:10349000F7D1234B1B68A3423DD01668083623683A
:1034A000136063685B1B102B10D9601910F0070FB5
:1034B00008D04FF0500383F31188BFF36F8FBFF331
:1034C0004F8FFEE743606560FFF78AFF6268164929
:1034D0000B689B1A0B60164909688B4201D214498C
:1034E0000B60104B1B68134363600023236002E0F2
:1034F000002600E0002600F0E9FE16F0070F0CD0D1
:103500004FF0500383F31188BFF36F8FBFF34F8FDA
:10351000FEE70026EFE70026EDE7304670BD00BF6E
:103520003C000020400C0020440C00204C0C0020EB
:10353000480C002080B338B50446A0F1080550F8C7
:10354000043C164A1268134208D14FF0500383F32B
:103550001188BFF36F8FBFF34F8FFEE750F8081C41
:1035600041B14FF0500383F31188BFF36F8FBFF366
:103570004F8FFEE723EA020340F8043C00F02EFEE2
:1035800054F8041C064A13680B4413602846FFF7DE
:1035900027FF00F09BFE38BD704700BF400C0020A5
:1035A000440C00200346406A18B11B6B1868C0F138
:1035B0000700704710B50446FFF78CFDA26BE36B64
:1035C0009A4204D00024FFF7A7FD204610BD012435
:1035D000F9E710B50446FFF77DFDA36B23B901247D
:1035E000FFF79AFD204610BD0024F9E770B50446A8
:1035F0001546866B026C5AB903681BB10020013670
:10360000A66370BD406801F0B1F800236360F6E77F
:103610006DB9806802F002FB226CA3681344A360BA
:103620006268934219D32368A3602846E7E7C0681D
:1036300002F0F4FA226C5142E3689B1AE3602268BC
:10364000934202D263680B44E360022D01D0002054
:10365000D5E726B1013E0020D1E72846CFE700207C
:10366000CDE70346026C6AB110B50846D96811442B
:10367000D9605C68A14201D31968D960D96802F0A9
:10368000CDFA10BD704738B50546FFF723FD95F814
:10369000454064B201E0013C64B2002C0ADD6B6A73
:1036A00043B105F1240000F059FF0028F3D000F0E9
:1036B000E9FFF0E7FF2385F84530FFF72DFDFFF721
:1036C00009FD95F8444064B201E0013C64B2002C6D
:1036D0000ADD2B6943B105F1100000F03FFF00281F
:1036E000F3D000F0CFFFF0E7FF2385F84430FFF779
:1036F00013FD38BD38B5E0B10D460446FFF7EAFCCE
:103700002368E26B216C01FB023060600020A06343
:10371000A360013A02FB0133E360FF2384F84430E5
:1037200084F845309DB9236963B9FFF7F5FC0120A2
:1037300038BD4FF0500383F31188BFF36F8FBFF391
:103740004F8FFEE704F1100000F008FFEDE704F1F1
:103750001000FFF70EFC04F12400FFF70AFCE4E779
:1037600010B5034602980C4631B90060C363046487
:103770000121FFF7BFFF10BD0260F7E740B94FF02E
:10378000500383F31188BFF36F8FBFF34F8FFEE7B2
:1037900010B584B01C46844653B192B189B94FF03C
:1037A000500383F31188BFF36F8FBFF34F8FFEE792
:1037B0004FF0500383F31188BFF36F8FBFF34F8F28
:1037C000FEE76AB148230393039B482B13D04FF0C5
:1037D000500383F31188BFF36F8FBFF34F8FFEE762
:1037E0000029EFD04FF0500383F31188BFF36F8FA0
:1037F000BFF34F8FFEE7012384F8463000949DF815
:1038000018306046FFF7ACFF204604B010BD40B949
:103810004FF0500383F31188BFF36F8FBFF34F8FC7
:10382000FEE7F0B583B00C4615460746A1B101FB93
:1038300000F04830FFF706FE064650B1002380F83E
:10384000463000902B4600F1480221463846FFF7EB
:1038500087FF304603B0F0BD0846EAE7F0B585B013
:10386000019288B10F461D460446B1B1022D20D108
:10387000E36B012B1DD04FF0500383F31188BFF38E
:103880006F8FBFF34F8FFEE74FF0500383F3118824
:10389000BFF36F8FBFF34F8FFEE7036C002BE5D0B4
:1038A0004FF0500383F31188BFF36F8FBFF34F8F37
:1038B000FEE700F0EDFE064650B9019B8BB34FF0DA
:1038C000500383F31188BFF36F8FBFF34F8FFEE771
:1038D000002626E02A4639462046FFF787FE636A1F
:1038E00023B9FFF719FC012005B0F0BD04F1240055
:1038F00000F034FEF5E7FFF70FFC0020F4E702A824
:1039000000F072FE012619E0002384F8443021E023
:10391000002384F8453023E02046FFF7B4FE00F092
:10392000D5FCFFF7D7FBA26BE36B9A42D2D3022DF3
:10393000D0D0019B002BDED0002EE0D0FFF7ECFBB7
:1039400000F04CFCFFF7C6FB94F8442052B2B2F1F1
:10395000FF3FD9D094F8452052B2B2F1FF3FD7D003
:10396000FFF7DAFB01A902A800F04AFED8B9204609
:10397000FFF720FE0028CFD0019904F1100000F0DD
:10398000D5FD2046FFF77FFE00F0A0FC0028C8D13F
:103990004FF0E0234FF08052C3F8042DBFF34F8F58
:1039A000BFF36F8FBDE72046FFF76DFE00F08EFC82
:1039B000002099E748B108B5002141600160C1606D
:1039C0000B460A46FFF74AFF08BD704710B502468E
:1039D00000210120FFF71BFF0446FFF7EBFF204605
:1039E00010BD10B582B00B46009000221146012098
:1039F000FFF7C4FE0446FFF7DDFF204602B010BD0E
:103A00002DE9F84390B10F4616461C460546B1B164
:103A1000022C20D1EB6B012B1DD04FF0500383F310
:103A20001188BFF36F8FBFF34F8FFEE74FF0500346
:103A300083F31188BFF36F8FBFF34F8FFEE7036CE3
:103A4000002BE5D04FF0500383F31188BFF36F8F45
:103A5000BFF34F8FFEE7FFF763FCEFF311894FF0E1
:103A6000500383F31188BFF36F8FBFF34F8FAA6B9F
:103A7000EB6B9A4206D3022C04D0002089F3118804
:103A8000BDE8F88395F845804FFA88F82246394614
:103A90002846FFF7ABFDB8F1FF3F06D008F1010360
:103AA0005BB285F845300120E8E76B6A0BB901206D
:103AB000E4E705F1240000F051FD18B126B1012022
:103AC0003060DBE70120D9E70120D7E7F0B585B00A
:103AD000019290B10F460446C1B100F0D9FD0646EF
:103AE00000BB019B002B52D04FF0500383F3118891
:103AF000BFF36F8FBFF34F8FFEE74FF0500383F399
:103B00001188BFF36F8FBFF34F8FFEE7036C002B5D
:103B1000E3D04FF0500383F31188BFF36F8FBFF3EF
:103B20004F8FFEE7002632E039462046FFF799FD29
:103B3000013DA563236923B9FFF7EEFA012005B023
:103B4000F0BD04F1100000F009FDF5E7FFF7E4FA1D
:103B50000020F4E702A800F047FD012621E0002341
:103B600084F8443029E0002384F845302BE02046D7
:103B7000FFF789FD00F0AAFB09E02046FFF783FD6F
:103B800000F0A4FB2046FFF724FD00283FD1FFF7FB
:103B9000A1FAA56B002DC7D1019B002BD6D0002E1A
:103BA000D8D0FFF7B9FA00F019FBFFF793FA94F8B1
:103BB00044305BB2B3F1FF3FD1D094F845305BB2F3
:103BC000B3F1FF3FCFD0FFF7A7FA01A902A800F099
:103BD00017FD0028D1D12046FFF7FBFC0028C6D0F6
:103BE000019904F1240000F0A1FC2046FFF74BFDF1
:103BF00000F06CFB0028CAD14FF0E0234FF0805258
:103C0000C3F8042DBFF34F8FBFF36F8FBFE70020C2
:103C100095E770B584B0019158B10446036C8BB13F
:103C20004FF0500383F31188BFF36F8FBFF34F8FB3
:103C3000FEE74FF0500383F31188BFF36F8FBFF39C
:103C40004F8FFEE700F024FD054650B9019B5BB1A4
:103C50004FF0500383F31188BFF36F8FBFF34F8F83
:103C6000FEE70026354649E0064647E0013BA363F0
:103C700023683BB123694BB9FFF74EFA0126304662
:103C800004B070BD00F02CFE6060F3E704F110009A
:103C900000F064FCF0E746B14FF0500383F3118865
:103CA000BFF36F8FBFF34F8FFEE7FFF735FAE6E7FD
:103CB00002A800F099FC01252AE0002384F8443092
:103CC00032E0002384F8453034E0FFF703FA6068FF
:103CD00000F0EEFC0646FFF71FFA3BE02046FFF738
:103CE000D2FC00F0F3FA09E02046FFF7CCFC00F02C
:103CF000EDFA2046FFF76DFC002842D1FFF7EAF904
:103D0000A36B002BB2D1019B002BC4D0002DCFD0D0
:103D1000FFF702FA00F062FAFFF7DCF994F844309A
:103D20005BB2B3F1FF3FC8D094F845305BB2B3F15A
:103D3000FF3FC6D0FFF7F0F901A902A800F060FC30
:103D40000028D1D12046FFF744FC0028C6D02368C4
:103D5000002BBAD0019904F1240000F0E7FB2046C3
:103D6000FFF791FC00F0B2FA0028C7D14FF0E02332
:103D70004FF08052C3F8042DBFF34F8FBFF36F8F06
:103D8000BCE70EB900267AE7FFF7A4F92046FFF753
:103D900009FC0146606800F043FDFFF7BDF9F1E75B
:103DA000084B1B681B6823B9074B4FF0FF321A60A2
:103DB0007047044B1B68DB68DB685A68024B1A606B
:103DC000704700BF580C0020300D00202DE9F0474F
:103DD00007469846089DDDF824900A9C266B02F160
:103DE0008042013A06EB820626F007064FF0000CEF
:103DF000BCF10F0F0BD811F80C2004EB0C0383F867
:103E0000342011F80C3013B10CF1010CF0E7002351
:103E100084F84330062D00D90625E56265644FF02D
:103E2000000AC4F848A0201DFFF7AEF804F11800FE
:103E3000FFF7AAF82461C5F10705A5616462C4F81B
:103E40004CA084F850A0424639463046FFF714F99A
:103E50002060B9F1000F01D0C9F80040BDE8F0873B
:103E600038B5002407E004EB840293000E481844A0
:103E7000FFF77FF80134062CF5D90C4D2846FFF7E3
:103E800078F80B4C2046FFF774F80A48FFF771F8F2
:103E90000948FFF76EF80948FFF76BF8084B1D60FB
:103EA000084B1C6038BD00BF600C0020040D0020D2
:103EB000180D0020380D0020640D0020500D00204A
:103EC000580C00205C0C002010B50446FFF702F9E6
:103ED0001A4A136801331360194B1B685BB1194B05
:103EE0001B686BB9164B1B68DA6AE36A9A4207D8FB
:103EF000134B1C6004E0124B1C601368012B1AD09A
:103F0000114A136801331360E36A01229A400F4992
:103F1000086802430A6003EB8303211D0C4800EB91
:103F20008300FFF734F8FFF7F7F8064B1B680BB177
:103F3000034B1B6810BDFFF793FFE1E7EC0C00207B
:103F4000540C00204C0D0020FC0C0020000D002023
:103F5000600C002010B5044690F8513063B1012B7D
:103F600011D0022B0ED04FF0500383F31188BFF312
:103F70006F8FBFF34F8FFEE7006BFFF7DBFA204632
:103F8000FFF7D8FA10BDFFF7D5FAFBE70F4B1B6818
:103F9000D3B110B5FFF79EF80D4BDB68DC68201D30
:103FA000FFF719F80B4A1368013B1360074A1368BF
:103FB000013B1360FFF7B0F82046FFF7CBFF034B40
:103FC0001B68002BE6D110BD704700BFF00C00202D
:103FD000640D0020EC0C002008B5FFF7D7FF4FF070
:103FE000E0234FF08052C3F8042DBFF34F8FBFF38F
:103FF0006F8FF2E770B504460D461D4B1E681D4BD2
:1040000018680430FEF7E7FF50B91A4B1B68DA6AEC
:10401000012303FA02F218490B6823EA02030B603A
:10402000B4F1FF3F0DD03444124B1B685C60A642D4
:1040300010D9124B18680F4B19680431FEF7B2FF04
:1040400070BD002DEFD00B4B196804310C48FEF702
:104050009EFFF5E70B4B1868064B19680431FEF715
:10406000A1FF094B1B68A342EAD9074B1C60E7E795
:10407000780D0020540C0020000D00205C0C002066
:10408000500D0020580C0020300D002030B587B0B6
:104090000B9C7CB10C9DB5B154250495049D542D09
:1040A0001AD04FF0500383F31188BFF36F8FBFF323
:1040B0004F8FFEE74FF0500383F31188BFF36F8FEC
:1040C000BFF34F8FFEE74FF0500383F31188BFF328
:1040D0006F8FBFF34F8FFEE70C9D2C63022485F892
:1040E000514000240394029505AC01940A9C00946D
:1040F000FFF76CFE0C98FFF7E7FE059807B030BDA0
:104100002DE9F04385B00746884614461E469000C8
:10411000FFF798F900B381465420FFF793F905465D
:10412000B0B1C0F83090E5B1002385F85130039369
:1041300002950D9B01930C9B00933346224641460A
:104140003846FFF743FE2846FFF7BEFE012005E094
:104150004846FFF7EFF9E6E74FF0FF3005B0BDE85E
:10416000F0834FF0FF30F9E710B588B000240594D4
:10417000069407AA06A905A800F036FF059B02933E
:10418000069B019300942346079A0E490E48FFF7B9
:104190007DFF0E4B186090B14FF0500383F31188F0
:1041A000BFF36F8FBFF34F8F094B4FF0FF321A6091
:1041B000084B01221A60084B1C60FFF725F808B075
:1041C00010BD00BF285D0008D93F00082C0D00205D
:1041D000300D00204C0D0020780D0020024A13689D
:1041E00001331360704700BFF80C00202E4B1B6892
:1041F000002B53D170B52D4B1D6801351D60C5B91D
:104200002B4B1B681B6843B14FF0500383F311889D
:10421000BFF36F8FBFF34F8FFEE7254A1168254B21
:10422000186810601960244A136801331360FFF79F
:10423000B7FD224B1B68AB4218D9002070BD1F4B45
:104240004FF0FF321A60F8E71C4A1360F5E7E36AA3
:1042500001229A401A49086802430A6003EB83036B
:104260009A00314617481044FEF791FE104B1B6828
:104270001B68002BE3D00E4B1B68DB68DC686368AF
:104280009D42E1D3261D3046FEF7A5FEA36A002B12
:10429000DDD004F11800FEF79EFED8E70A4A136845
:1042A0000133136000207047F80C0020780D0020C7
:1042B000580C00205C0C0020340D0020300D002034
:1042C000000D0020600C0020F40C002038B52D4BB0
:1042D0001B6843B94FF0500383F31188BFF36F8F0E
:1042E000BFF34F8FFEE7FEF7F5FE264B1A68013A43
:1042F0001A601B6813B9244B1B681BB9FEF70CFF2F
:10430000002038BD0024214B1B681BB31F4BDB680A
:10431000DC6804F11800FEF75EFE251D2846FEF756
:104320005AFEE06A01238340194A11680B43136067
:1043300000EB80002946174B03EB8000FEF727FEB9
:10434000E26A154B1B68DB6A9A42DCD3134B0122ED
:104350001A60D8E70CB1FFF723FD114B1C6824B994
:104360000E4B1B68CAE7013C07D0FFF73FFF002850
:10437000F9D00A4B01221A60F5E7094B00221A60B6
:10438000EEE700BFF80C0020EC0C0020380D0020F8
:10439000000D0020600C0020540C00207C0D00203B
:1043A000F40C002038B558B10C46054689B94FF0D9
:1043B000500383F31188BFF36F8FBFF34F8FFEE776
:1043C0004FF0500383F31188BFF36F8FBFF34F8F0C
:1043D000FEE71B4B1B6843B14FF0500383F311887A
:1043E000BFF36F8FBFF34F8FFEE7FFF7F7FE154B5D
:1043F00018682B681C44834209D9A34201D82C6059
:104400000EE0A04201D32C600AE02C6004E0A3423D
:1044100001D8A04212D22C600021201AFFF7EAFD39
:10442000FFF754FF48B94FF0E0234FF08052C3F834
:10443000042DBFF34F8FBFF36F8F38BD2C60EFE7B4
:10444000F80C0020780D002010B5A8B10446104BE0
:104450001B6843B14FF0500383F31188BFF36F8F94
:10446000BFF34F8FFEE7FFF7B9FE00212046FFF7AD
:10447000C1FDFFF72BFF48B94FF0E0234FF080520A
:10448000C3F8042DBFF34F8FBFF36F8F10BD00BF74
:10449000F80C0020204B1B681BB1204B01221A6036
:1044A00070471E4B00221A601D4B1B68B3FA83F342
:1044B000DBB2C3F11F0303EB83018A0019498A5859
:1044C00042B94FF0500383F31188BFF36F8FBFF3EE
:1044D0004F8FFEE7134903EB830082000A445068C4
:1044E0004068506003EB830C4FEA8C0208321144A1
:1044F000884209D003EB83039A000A4B13445B689C
:10450000DA68094B1A607047406862469100054AB4
:104510000A445060EEE700BFF80C00207C0D00203C
:10452000000D0020600C0020540C002058B110B584
:104530000C46094A11681831FEF734FD0121204666
:10454000FFF758FD10BD4FF0500383F31188BFF300
:104550006F8FBFF34F8FFEE7540C002038B5C36850
:10456000DC6824B304F118052846FEF734FD184B27
:104570001B682BBB251D2846FEF72DFDE06A012395
:104580008340144A11680B43136000EB80002946F6
:10459000114B03EB8000FEF7FAFCE26A0F4B1B683D
:1045A000DB6A9A4211D901200D4B186038BD4FF0DB
:1045B000500383F31188BFF36F8FBFF34F8FFEE774
:1045C00029460848FEF7E3FCE7E70020EEE700BFD6
:1045D000F80C0020000D0020600C0020540C00207E
:1045E0007C0D0020380D0020034B1B680360034B3B
:1045F0001B684360704700BF340D0020780D002019
:10460000F8B5C8B10C460546F9B1FEF763FD1B4B82
:1046100019686B68C81A2268B2F1FF3F26D0184E9D
:1046200036682F68B74201D08B4224D9824215D810
:104630000023236001241AE04FF0500383F3118814
:10464000BFF36F8FBFF34F8FFEE74FF0500383F33D
:104650001188BFF36F8FBFF34F8FFEE75B1A1344D0
:1046600023602846FFF7C0FF002400E00024FEF787
:1046700053FD2046F8BD0124F9E700BF780D002066
:10468000340D0020014B01221A6070477C0D002080
:10469000054B1B6833B1054B1B680BB100207047FD
:1046A00002207047012070474C0D0020F80C0020BC
:1046B000002851D038B50446C36A294A1268D26A24
:1046C000934241D28269002A05DB254A1268D26AE8
:1046D000C2F107028261616903EB8303214A02EBA5
:1046E0008303994205D01E4B1B68DB6AE3620120FD
:1046F00038BD251D2846FEF76EFCA0B1184B1B687F
:10470000D86AE062012404FA00F3174A11680B43E7
:10471000136000EB80002946124B03EB8000FEF78C
:1047200036FC2046E4E7E26A02EB82039B000D4977
:10473000CB58002BE2D1012303FA02F20A490B689D
:1047400023EA02030B60D9E7426C054B1B68DB6A66
:104750009A4203D30020CBE7002070470120C7E72F
:10476000540C0020600C0020000D002000284CD0CC
:1047700038B50446274B1B68834208D04FF05003DE
:1047800083F31188BFF36F8FBFF34F8FFEE7836C06
:1047900043B94FF0500383F31188BFF36F8FBFF31A
:1047A0004F8FFEE7013B8364C16A426C91422ED079
:1047B0000BB1002038BD051D2846FEF70CFC70B972
:1047C000E26A02EB82039B001349CB583BB90123F9
:1047D00003FA02F211490B6823EA02030B60606CD2
:1047E000E062C0F10703A361012404FA00F30B4A5D
:1047F00011680B43136000EB80002946064B03EB66
:104800008000FEF7C4FB2046D4E70020704700205C
:10481000D0E700BF540C0020600C0020000D0020E9
:10482000002856D038B50446836C43B94FF0500386
:1048300083F31188BFF36F8FBFF34F8FFEE7426C96
:104840008A4200D20A46E16A914201D0012B00D08F
:1048500038BD204B1B68A34232D0E262A369002B13
:1048600002DBC2F10702A261626901EB81011A4B0E
:1048700003EB81018A42EBD1251D2846FEF7ABFBF5
:1048800070B9E26A02EB82039B001349CB583BB933
:10489000012303FA02F211490B6823EA02030B60B9
:1048A000E06A012383400D4A11680B43136000EB5B
:1048B00080002946084B03EB8000FEF768FBC7E742
:1048C0004FF0500383F31188BFF36F8FBFF34F8F07
:1048D000FEE77047540C0020600C0020000D002003
:1048E000054B1B6823B1044B1A68936C0133936426
:1048F000014B1868704700BF540C002030B52DEDF7
:10490000028B87B06C4684E80F000446C0B20023D7
:1049100000E001336F4A12689A420BDDC3EB0312C9
:104920006D4911F822208242F3D1C3EB031301EB4E
:10493000830500E00025ADB100230593C4F30724EF
:10494000093C122C0ED8DFE804F00A0D0D0D0D38CD
:1049500056740D0D0D0D0D0D0D0D0D0DAC00039BC1
:10496000072B03DC07B0BDEC028B30BD05A901A805
:1049700000F0E6F907EE900AF8EEE77AC5ED027A64
:1049800005A901A800F0F4F907EE900AF8EEE77A1D
:10499000F2EE046A87EEA67A85ED037A05A901A8EE
:1049A00000F0E6F907EE900AF8EEE77ADFED4B6AE1
:1049B00087EEA67A85ED047AD4E7039B072BD1DD39
:1049C00005A901A800F0BCF907EE900AF8EEE77A15
:1049D0009FED438A87EE887A85ED057A05A901A8BF
:1049E00000F0AEF907EE900AF8EEE77A87EE887AE3
:1049F00085ED067AB6E7039B072BB3DD05A901A871
:104A000000F09EF907EE900AF8EEE77A9FED348AFF
:104A100087EE887A85ED077A05A901A800F090F95C
:104A200007EE900AF8EEE77A87EE887A85ED087A45
:104A300098E7039B072B95DD05A901A800F098F9DD
:104A400007EE900AF8EEE77AB2EE048A87EE887AEB
:104A500085ED097A05A901A800F08AF907EE900A08
:104A6000F8EEE77A87EE887A85ED0A7A05A901A83B
:104A700000F07EF907EE900AF8EEE77A87EE887A82
:104A800085ED0B7A05A901A800F072F907EE900AEE
:104A9000F8EEE77ADFED136A87EEA67A85ED0C7AF9
:104AA00060E7039B052B7FF75DAF05A901A800F028
:104AB00047F9686305A901A800F05AF907EE900AC2
:104AC000F8EEE77AF2EE046A87EEA67A85ED0E7AC2
:104AD00048E700BF800D0020840D002000007A44CC
:104AE00000401C460000484208B503494FF0FF3023
:104AF00000F092F908BD00BFFD48000808B58C46DB
:104B0000114600781A4640EA0C2000F055F908BD1D
:104B100030B4074C2368074AC3EB031C5D1C2560B7
:104B200002F82C0002EB8C035960184630BC704729
:104B3000800D0020840D002010B582B00446D0ED19
:104B4000017AF8EEE77A67EE807A00230093FDEEB3
:104B5000E77A17EE902A694601A800F017F90423B6
:104B60000DEB030203212046FFF7C8FF02B010BD82
:104B700010B582B0044610EE100AFBF7BFFD00220C
:104B8000074BFBF72DFBFBF711FE019004230DEB08
:104B9000030201212046FFF7B1FF02B010BD00BFA4
:104BA00000408F4090ED020AD0ED017AF8EEE77AEE
:104BB00080EE270A7047000084B00DF1100C0CE95C
:104BC0000F00030A282B01D004B07047039B002B71
:104BD000FADD9DF80430012B03D0044B00221A703B
:104BE000F2E7024B03221A70EEE700BF0D0000202F
:104BF000F0B583B04B49652000F00EF907210A207B
:104C0000FFF786FF484B186007210B20FFF780FF56
:104C1000464B186031E0464A1278012A35D8444B99
:104C200002221A7038E0424B01221A7034E0404BE5
:104C300003221A7051E03E4B1B78012B59D0022BF6
:104C40005CD09FED3C0A394B1868FFF791FF384B59
:104C50001B78012B59D0022B5CD09FED360A324BCA
:104C60001868FFF785FF324B1B788DF80030012262
:104C7000694642F6651000F09FF8142101A8FFF77D
:104C800091FB2D4B1B78032BC5D02BB9284B1B78E0
:104C9000023BDBB2012BC6D94FF400714FF09040BC
:104CA000FCF700FF07464FF400712448FCF7FAFEBA
:104CB00005464FF480614FF09040FCF7F3FE044648
:104CC0004FF480714FF09040FCF7ECFE064627B998
:104CD0001DB9174B1B78022BA9D0002CABD1002E8D
:104CE000A9D1134B1B78012BA5D1114B00221A70AF
:104CF000A1E7002CA3D0B2EE040AA4E717B99FEDF8
:104D00000D0AA0E7BAEE040A9DE7002EA3D0B2EE8A
:104D1000040AA4E715B99FED070AA0E7BAEE040A52
:104D20009DE700BFB94B0008441100204811002046
:104D30000C000020000000000D00002000080048CA
:104D400010B40B685A1C0A6010F803C09C1C0C605D
:104D5000835C1B0443EA0C6302320A60045D43EA8D
:104D60000423541C0C60805C18435DF8044B7047AE
:104D700010B40B685A1C0A60C35C1B021BB2541CA3
:104D80000C60805C18435DF8044B704730B4141617
:104D90000B685D1C0D60C45414140B685D1C0D6021
:104DA000C45414120B685D1C0D60C4540B685C1C69
:104DB0000C60C25430BC704710B50C46124B042135
:104DC000996058600021D9601A6119754FF0FF3160
:104DD0000E4B1868FEF71DFF02E00120FFF734FBC1
:104DE0000B48FCF72CFB0028F7D00A4B224606495B
:104DF0000748FCF7A6FA00231A461946034800683C
:104E0000FEF72CFD10BD00BF741100208819002092
:104E1000E42000204C11002010B4064B1A68541CEA
:104E20001C60054B43F8320003EBC20359605DF888
:104E3000044B70478C1100209011002000B585B004
:104E40000D4B0E4A0021FCF713FB90B90B4B5A682F
:104E500000921A690392084901A800F0DFFE0023BE
:104E60001A46694606480068FEF7CAFD05B05DF8B7
:104E700004FB00F0BBFAE9E75011002058110020B4
:104E8000E423002030B587B014E06A460F4B03EBF3
:104E9000C40393E8030082E80300029A024204D0AC
:104EA00006AB13E90F00019DA8470134084B1B68AE
:104EB000A342EADC4FF0FF3202A9064B1868FEF766
:104EC00005FE0128F6D10024F0E700BF9011002074
:104ED0008C110020E423002000B52DED028B87B05B
:104EE000EC468CE80F0000230593030A232B04D023
:104EF00007B0BDEC028B5DF804FB05A901A8FFF724
:104F00001FFF08EE100A05A901A8FFF719FFB8EE68
:104F1000C88ADFED137A28EE278AF6EE007A28EEAB
:104F2000278A07EE900AF8EEE77A37EE888A0D4A6C
:104F300082ED008A430007EE903AF8EEE77A77EECA
:104F4000C87A094BC3ED007A9FED087A28EE078AEC
:104F500082ED008A67EE877AC3ED007AC8E700BF6A
:104F600000007A44E4110020E01100207DD6874043
:104F70002DE9F04182B019496420FFF74DFF072168
:104F80000220FFF7C5FD804607210420FFF7C0FD82
:104F9000074607210320FFF7BBFD06460721012036
:104FA000FFF7B6FD0546642101A8FFF7FBF90C4C9D
:104FB00094ED000A4046FFF7BFFD94ED000A284635
:104FC000FFF7BAFD074C94ED000A3846FFF7B4FD31
:104FD00094ED000A3046FFF7AFFDE4E7D94E000834
:104FE000E0110020E4110020034B0360034B0B6031
:104FF00080231360704700BFE8130020E8110020F1
:1050000000B587B0EC468CE80F00030A322B06D0BF
:10501000332B13D0342B22D007B05DF804FB039A56
:10502000002AF5DD9DF80430012B03D0114B00223E
:105030001A70F1E70F4B03221A70EDE7039A032A67
:10504000E8DD0023059305A901A8FFF779FE07EE27
:10505000900AF8EEE77A084BC3ED007ADCE7039B91
:10506000002BD9DD9DF80430003B18BF0123034A13
:105070001370D1E78C1400208814002050140020F5
:10508000F0B58BB07B496620FFF7C6FE07210C20E8
:10509000FFF73EFD784B1860784D02AC784E102338
:1050A0000093334620223146204600F037FB94E837
:1050B0000F0085E80F00734D734F4FF400630093AA
:1050C0003B464FF480523946204600F027FB94E8D7
:1050D0000F0085E80F006D4D4FF4004300934FF033
:1050E00090434FF480623946204600F017FB94E865
:1050F0000F0085E80F00664D4FF480530093334650
:105100004FF400523146204600F008FB94E80F00AF
:1051100085E80F0052E05F4B01221A705DE05D4BA5
:105120001B78012B59D85B4B02221A7055E025B928
:105130001CB9584B1B78022B72D0564B1B78023B84
:10514000DBB2012B70D902214C4800F0F0FA514B30
:105150001B78022B6DD0012B72D04E4B1B78022B8B
:1051600075D0012B7AD04C4B93ED000A424B186856
:10517000FFF7E2FC494B1B78002B76D00121444815
:1051800000F0D5FA434B1B788DF81C30434B1B784D
:105190008DF81D30384B1868FFF704FD0223069385
:1051A000FDEEC07A17EE902A06A907A8FFF7EEFDDC
:1051B000012207A943F26650FFF7FEFD142109A85A
:1051C000FFF7F0F8364B1A782AB9324B1B78023BBE
:1051D000DBB2012B9FD9032AA1D0294C4FF4806167
:1051E0002046FCF75FFC064602212046FCF75AFCED
:1051F00007464FF400612046FCF754FC05460421A5
:105200002046FCF74FFC0446002E90D1002F8ED193
:10521000204B1B78012B8AD11E4B00221A7086E787
:105220001C4B03221A7088E70121144800F07FFA12
:105230008DE7002D8FD00121144800F078FA8CE71B
:10524000002E8AD00221114800F071FA85E7002C67
:1052500087D001210B4800F06AFA84E7002F82D042
:105260000221084800F063FA7DE70221084800F0B7
:105270005EFA87E7015000088414002054140020CF
:105280000004004864140020000800487414002042
:10529000401400203C1400208814002050140020EA
:1052A0008C140020F0B58BB000240594069407946C
:1052B00008940994404B5A6942F400225A615A6991
:1052C00002F400220192019A5A6942F480025A6162
:1052D0005A6902F480020292029A5A6942F4003238
:1052E0005A615A6902F400320392039A5A6942F4ED
:1052F00080225A615B6903F480230493049B224655
:1053000048F220014FF09040FCF7D3FB2B4F224690
:1053100043F230013846FCF7CCFB294D22464FF4CE
:10532000E0512846FCF7C5FB4FF400530593254B8D
:105330000693079405A92846FCF7DAFA48F22003F9
:105340000593012606960794089405A94FF090400E
:10535000FCF7CEFA4FF4787305930694079405A9E9
:105360002846FCF7C5FA4CF60743059306940794C4
:1053700005A93846FCF7BCFA43F2300305930696BC
:105380000794089405A93846FCF7B2FA4FF4E06395
:1053900005930694079405A94FF09040FCF7A8FAEE
:1053A0004FF4E053059306960794089405A9284600
:1053B000FCF79EFA0BB0F0BD00100240000400485C
:1053C000000800480000211008B50120FDF7BFFDCE
:1053D000FBE7000008B50268034B9A4200D008BD05
:1053E000FBF71EFAFBE700BF002C0140014B5B6A94
:1053F000704700BFE420002008B50B480B4B03604A
:105400004FF41643436000238360C36003610C22A2
:1054100042618361C36103624362FDF727FD00B906
:1054200008BDFFF7E3FFFBE70C210020004400402C
:1054300000B58BB01F48204B03600323436000235B
:105440008360C3604FF4102202614361012202763F
:1054500043768376C37602774377FBF71BFEE8B982
:105460000023059306930122079200930193029370
:105470000393049308920F23099369460D48FBF7A1
:10548000AFFE70B90B48FBF72EFF68B9022109483F
:10549000FCF793F858B90BB05DF804FBFFF7A6FFD3
:1054A000DEE7FFF7A3FFEDE7FFF7A0FFEEE7FFF76B
:1054B0009DFFF0E7E42000200064004000B58BB0C1
:1054C0000023079308930993019302930393049392
:1054D000059306931B484FF0A0420260436083602F
:1054E0000361437680F82030C36201228262C36088
:1054F000C26180F830300422426103764363FBF7D7
:10550000E1F9B0B90023079307A90E48FBF714FD92
:1055100090B901230193029300230493039305930D
:10552000069301A90748FBF729FB40B90BB05DF8CA
:1055300004FBFFF75BFFE5E7FFF758FFE9E7FFF73D
:1055400055FFF3E79420002000B5A7B028220021E2
:105550001CA800F071FB00211791189119911A9164
:105560001B91582201A800F067FB02231C93012223
:105570001F921022209222934FF4004323934FF462
:10558000E01324931CA8FCF7AFFAD8B90F231793A4
:1055900002211891002319934FF480621A921B93F1
:1055A00017A8FCF7FDFD80B9822301930023049323
:1055B0004FF480730B9301A8FCF716FF40B927B096
:1055C0005DF804FBFFF712FFE0E7FFF70FFFEBE7E3
:1055D000FFF70CFFF3E7000000B5ADB0FBF70EF9E5
:1055E000FFF7B2FFFFF75EFEFFF706FFFFF720FFB2
:1055F000FFF764FFFFF778FA00252A953D4B2B93C0
:105600002AA8FDF7ABFC3C4B18602A461021082065
:10561000FEF7FDF8394B1860394C0DF18C0CA6469D
:10562000BEE80F00ACE80F009EE807008CE807001A
:10563000294623A8FDF756FC324B18600DF1700C7B
:1056400004F11C0EBEE80F00ACE80F009EE8070056
:105650008CE8070029461CA8FDF744FC2A4B18607B
:105660000DF1540C04F1380EBEE80F00ACE80F0049
:105670009EE807008CE80700294615A8FDF732FCD4
:10568000224B18600DF1380C04F1540EBEE80F00E7
:10569000ACE80F009EE807008CE8070029460EA83A
:1056A000FDF720FC1A4B18600DF11C0C04F1700E74
:1056B000BEE80F00ACE80F009EE807008CE807008A
:1056C000294607A8FDF70EFC124B1860EE4604F1C0
:1056D0008C0CBCE80F00AEE80F009CE807008EE8D9
:1056E000070029466846FDF7FDFB0B4B1860FDF7E8
:1056F000F4FBFEE74019002088190020E423002075
:10570000605C0008E01B0020E41600203C1900202B
:1057100090200020E0230020381E002001608280BD
:105720008360BDF80030838100238373704710B518
:105730000446817331B101290FD0022918D0032901
:1057400021D010BD002281880068FCF7B2F9002248
:10575000A189A068FCF7ADF9F3E701228188006810
:10576000FCF7A7F90022A189A068FCF7A2F9E8E7F5
:10577000002281880068FCF79CF90122A189A068B9
:10578000FCF797F9DDE7012281880068FCF791F9C1
:105790000122A189A068FCF78CF9D2E700B587B097
:1057A000EC468CE80F00030A3D2B06D03E2B20D0A0
:1057B0003F2B29D007B05DF804FB039A032AF5DDDF
:1057C0001A4B01221A700023059305A901A8FFF7BF
:1057D000B7FA07EE900AF8EEE77A154BC3ED007AB8
:1057E000F5EE407AF1EE10FAE4D1104B00221A7077
:1057F000E0E70E4B1B781BB90E4B1B78002BD9D161
:105800000A4B02221A70D5E7039B032BD2DD00233B
:10581000059305A901A8FFF793FA07EE900AF8EEA1
:10582000E77A054BC3ED007AC4E700BFF1230020FF
:10583000EC230020F0230020F823002000B585B0E1
:1058400033496720FFF7E8FA07210D20FFF760F9D9
:10585000304B186007210E20FFF75AF92E4B1860C5
:105860002EE000283ED02D4B00221A703AE09FED2A
:105870002C0A284B1868FFF75FF92A4B93ED000AB2
:10588000254B1868FFF758F9244B1B788DF8043026
:10589000254B1B788DF80530022300931D4B1868AB
:1058A000FFF780F9FDEEC07A17EE902A694601A84D
:1058B000FFF76CFA062201A943F66740FFF77CFA6E
:1058C000142103A8FEF76EFD4FF480711748FCF712
:1058D000E9F8003818BF0120134B18700F4B1B78E4
:1058E000022BBED00D4B1B78022BC0D0012B06D053
:1058F0009FED0F0A074B1868FFF71EF9BDE70D4B28
:1059000093ED000A034B1868FFF716F9B5E700BFDF
:105910009D570008E8230020F4230020F1230020F5
:105920000000C842F8230020F023002000080048AF
:1059300000000000EC23002000B583B00D4B9A69F5
:1059400042F001029A619A6902F001020092009A03
:10595000DA6942F08052DA61DB6903F08053019327
:10596000019B00220F216FF00100FBF77BFF03B0CA
:105970005DF804FB0010024000B589B000230393DA
:1059800004930593069307930368B3F1A04F02D0E5
:1059900009B05DF804FB03F1704303F504335A6961
:1059A00042F080525A615A6902F080520192019A83
:1059B0005A6942F400325A615B6903F4003302937E
:1059C000029B03230393049303A94FF09040FBF73A
:1059D0008FFFDDE700B589B000230393049305939F
:1059E0000693079302681C4B9A4202D009B05DF8F7
:1059F00004FB03F5D633DA6942F00072DA61DA6942
:105A000002F000720192019A5A6942F400325A611E
:105A10005B6903F400330293029B4FF4C05303937A
:105A200002230493032306930923079303A94FF04A
:105A30009040FBF75DFF4FF48020FCF73FF84FF4F8
:105A40000020FCF73BF8002205211420FBF70AFF99
:105A50001420FBF73FFFC9E70064004000B589B0A0
:105A60000023039304930593069307930268134B53
:105A70009A4202D009B05DF804FB03F5E633DA6917
:105A800042F40032DA61DA6902F400320192019ADA
:105A90005A6942F400325A615B6903F4003302939D
:105AA000029B0C230393022304930723079303A968
:105AB0004FF09040FBF71CFFDCE700BF00440040C4
:105AC00000B589B0014600221920FBF7CBFE192052
:105AD000FBF700FF144B9A6942F400629A619B69DC
